{
  "_format": "hh-sol-artifact-1",
  "contractName": "EscrowSettlement",
  "sourceName": "contracts/EscrowSettlement.sol",
  "abi": [
    {
      "inputs": [
        {
          "internalType": "address",
          "name": "parkCoinAddress",
          "type": "address"
        },
        {
          "internalType": "address",
          "name": "treasury",
          "type": "address"
        },
        {
          "internalType": "uint256",
          "name": "initialDisputeWindowSeconds",
          "type": "uint256"
        }
      ],
      "stateMutability": "nonpayable",
      "type": "constructor"
    },
    {
      "anonymous": false,
      "inputs": [
        {
          "indexed": true,
          "internalType": "uint256",
          "name": "sessionId",
          "type": "uint256"
        }
      ],
      "name": "DisputeFlagged",
      "type": "event"
    },
    {
      "anonymous": false,
      "inputs": [
        {
          "indexed": true,
          "internalType": "uint256",
          "name": "sessionId",
          "type": "uint256"
        },
        {
          "indexed": true,
          "internalType": "address",
          "name": "driver",
          "type": "address"
        },
        {
          "indexed": false,
          "internalType": "uint256",
          "name": "amount",
          "type": "uint256"
        }
      ],
      "name": "EscrowDeposited",
      "type": "event"
    },
    {
      "anonymous": false,
      "inputs": [
        {
          "indexed": true,
          "internalType": "uint256",
          "name": "sessionId",
          "type": "uint256"
        },
        {
          "indexed": false,
          "internalType": "uint256",
          "name": "ownerAmount",
          "type": "uint256"
        },
        {
          "indexed": false,
          "internalType": "uint256",
          "name": "protocolFee",
          "type": "uint256"
        }
      ],
      "name": "EscrowReleased",
      "type": "event"
    },
    {
      "inputs": [
        {
          "internalType": "uint256",
          "name": "sessionId",
          "type": "uint256"
        },
        {
          "internalType": "address",
          "name": "lotOwner",
          "type": "address"
        },
        {
          "internalType": "uint256",
          "name": "amount",
          "type": "uint256"
        }
      ],
      "name": "depositEscrow",
      "outputs": [],
      "stateMutability": "nonpayable",
      "type": "function"
    },
    {
      "inputs": [],
      "name": "disputeWindowSeconds",
      "outputs": [
        {
          "internalType": "uint256",
          "name": "",
          "type": "uint256"
        }
      ],
      "stateMutability": "view",
      "type": "function"
    },
    {
      "inputs": [
        {
          "internalType": "uint256",
          "name": "",
          "type": "uint256"
        }
      ],
      "name": "escrows",
      "outputs": [
        {
          "internalType": "address",
          "name": "driver",
          "type": "address"
        },
        {
          "internalType": "address",
          "name": "lotOwner",
          "type": "address"
        },
        {
          "internalType": "uint256",
          "name": "amount",
          "type": "uint256"
        },
        {
          "internalType": "uint256",
          "name": "exitTimestamp",
          "type": "uint256"
        },
        {
          "internalType": "bool",
          "name": "disputed",
          "type": "bool"
        },
        {
          "internalType": "bool",
          "name": "released",
          "type": "bool"
        }
      ],
      "stateMutability": "view",
      "type": "function"
    },
    {
      "inputs": [
        {
          "internalType": "uint256",
          "name": "sessionId",
          "type": "uint256"
        }
      ],
      "name": "flagDispute",
      "outputs": [],
      "stateMutability": "nonpayable",
      "type": "function"
    },
    {
      "inputs": [
        {
          "internalType": "uint256",
          "name": "sessionId",
          "type": "uint256"
        }
      ],
      "name": "markExitConfirmed",
      "outputs": [],
      "stateMutability": "nonpayable",
      "type": "function"
    },
    {
      "inputs": [],
      "name": "owner",
      "outputs": [
        {
          "internalType": "address",
          "name": "",
          "type": "address"
        }
      ],
      "stateMutability": "view",
      "type": "function"
    },
    {
      "inputs": [],
      "name": "parkCoin",
      "outputs": [
        {
          "internalType": "contract IParkCoin",
          "name": "",
          "type": "address"
        }
      ],
      "stateMutability": "view",
      "type": "function"
    },
    {
      "inputs": [],
      "name": "protocolTreasury",
      "outputs": [
        {
          "internalType": "address",
          "name": "",
          "type": "address"
        }
      ],
      "stateMutability": "view",
      "type": "function"
    },
    {
      "inputs": [
        {
          "internalType": "uint256",
          "name": "sessionId",
          "type": "uint256"
        }
      ],
      "name": "releaseEscrow",
      "outputs": [],
      "stateMutability": "nonpayable",
      "type": "function"
    }
  ],
  "bytecode": "0x608060405234801561001057600080fd5b50604051610b34380380610b3483398101604081905261002f916100fa565b6001600160a01b0383166100795760405162461bcd60e51b815260206004820152600d60248201526c24b73b30b634b2103a37b5b2b760991b604482015260640160405180910390fd5b600180546001600160a01b03199081163317909155600080546001600160a01b03868116919093161790558216156100b157816100b3565b335b600280546001600160a01b0319166001600160a01b0392909216919091179055600355506101369050565b80516001600160a01b03811681146100f557600080fd5b919050565b60008060006060848603121561010f57600080fd5b610118846100de565b9250610126602085016100de565b9150604084015190509250925092565b6109ef806101456000396000f3fe608060405234801561001057600080fd5b50600436106100935760003560e01c806399c6f84c1161006657806399c6f84c146101845780639a06188414610199578063bb09270b146101ac578063daac3868146101bf578063ed653164146101d257600080fd5b8063012f52ee14610098578063232877d01461012f578063803db96d146101465780638da5cb5b14610171575b600080fd5b6100ee6100a63660046108cf565b6004602081905260009182526040909120805460018201546002830154600384015493909401546001600160a01b039283169492909116929060ff8082169161010090041686565b604080516001600160a01b03978816815296909516602087015293850192909252606084015215156080830152151560a082015260c0015b60405180910390f35b61013860035481565b604051908152602001610126565b600254610159906001600160a01b031681565b6040516001600160a01b039091168152602001610126565b600154610159906001600160a01b031681565b6101976101923660046108e8565b6101e5565b005b600054610159906001600160a01b031681565b6101976101ba3660046108cf565b610423565b6101976101cd3660046108cf565b6104c4565b6101976101e03660046108cf565b610553565b600083815260046020526040902060020154156102395760405162461bcd60e51b815260206004820152600d60248201526c457363726f772065786973747360981b60448201526064015b60405180910390fd5b6000811161027b5760405162461bcd60e51b815260206004820152600f60248201526e105b5bdd5b9d081c995c5d5a5c9959608a1b6044820152606401610230565b6000546040516323b872dd60e01b8152336004820152306024820152604481018390526001600160a01b03909116906323b872dd906064016020604051808303816000875af11580156102d2573d6000803e3d6000fd5b505050506040513d601f19601f820116820180604052508101906102f6919061092c565b6103345760405162461bcd60e51b815260206004820152600f60248201526e151c985b9cd9995c8819985a5b1959608a1b6044820152606401610230565b6040805160c081018252338082526001600160a01b0385811660208085019182528486018781526000606087018181526080880182815260a089018381528d8452600495869052928a9020985189549088166001600160a01b0319918216178a55955160018a018054919098169616959095179095559051600287015592516003860155905193018054915115156101000261ff00199415159490941661ffff199092169190911792909217909155905184907f9a57bbb234b70fc26fbb5c8d65f00c0bba23b19c4a7bb1aedb26c7a04269f747906104169085815260200190565b60405180910390a3505050565b6001546001600160a01b0316331461046a5760405162461bcd60e51b815260206004820152600a60248201526927b7363c9037bbb732b960b11b6044820152606401610230565b600081815260046020526040902060028101546104ba5760405162461bcd60e51b815260206004820152600e60248201526d4d697373696e6720657363726f7760901b6044820152606401610230565b4260039091015550565b6001546001600160a01b0316331461050b5760405162461bcd60e51b815260206004820152600a60248201526927b7363c9037bbb732b960b11b6044820152606401610230565b6000818152600460208190526040808320909101805460ff191660011790555182917f4c0416c5f0069c1e17f260f7ea34070a9860a279fb276addae3c21dc63b86b3191a250565b600081815260046020526040902060028101546105a35760405162461bcd60e51b815260206004820152600e60248201526d4d697373696e6720657363726f7760901b6044820152606401610230565b60008160030154116105ec5760405162461bcd60e51b8152602060048201526012602482015271115e1a5d081b9bdd0818dbdb999a5c9b595960721b6044820152606401610230565b600481015460ff16156106335760405162461bcd60e51b815260206004820152600f60248201526e115cd8dc9bddc8191a5cdc1d5d1959608a1b6044820152606401610230565b6004810154610100900460ff16156106805760405162461bcd60e51b815260206004820152601060248201526f105b1c9958591e481c995b19585cd95960821b6044820152606401610230565b6003548160030154610692919061096b565b4210156106d95760405162461bcd60e51b8152602060048201526015602482015274446973707574652077696e646f772061637469766560581b6044820152606401610230565b60048101805461ff00191661010017905560028101546000906106fe90601490610984565b9050600081836002015461071291906109a6565b600054600185015460405163a9059cbb60e01b81526001600160a01b03918216600482015260248101849052929350169063a9059cbb906044016020604051808303816000875af115801561076b573d6000803e3d6000fd5b505050506040513d601f19601f8201168201806040525081019061078f919061092c565b6107d35760405162461bcd60e51b815260206004820152601560248201527413dddb995c881d1c985b9cd9995c8819985a5b1959605a1b6044820152606401610230565b60005460025460405163a9059cbb60e01b81526001600160a01b0391821660048201526024810185905291169063a9059cbb906044016020604051808303816000875af1158015610828573d6000803e3d6000fd5b505050506040513d601f19601f8201168201806040525081019061084c919061092c565b61088e5760405162461bcd60e51b8152602060048201526013602482015272119959481d1c985b9cd9995c8819985a5b1959606a1b6044820152606401610230565b604080518281526020810184905285917f3f324d125e471a3087ea47eb7b28f36f262807b16344d6ed0883a748c7386ced910160405180910390a250505050565b6000602082840312156108e157600080fd5b5035919050565b6000806000606084860312156108fd57600080fd5b8335925060208401356001600160a01b038116811461091b57600080fd5b929592945050506040919091013590565b60006020828403121561093e57600080fd5b8151801515811461094e57600080fd5b9392505050565b634e487b7160e01b600052601160045260246000fd5b8082018082111561097e5761097e610955565b92915050565b6000826109a157634e487b7160e01b600052601260045260246000fd5b500490565b8181038181111561097e5761097e61095556fea264697066735822122011f090948bba55d652a4891ea7cafd705306778a40309697149f8fe9e4eec55064736f6c63430008180033",
  "linkReferences": {},
  "deployedLinkReferences": {}
}