{
  "_format": "hh-sol-artifact-1",
  "contractName": "GreenCreditToken",
  "sourceName": "contracts/GreenCreditToken.sol",
  "abi": [
    {
      "inputs": [],
      "stateMutability": "nonpayable",
      "type": "constructor"
    },
    {
      "anonymous": false,
      "inputs": [
        {
          "indexed": true,
          "internalType": "address",
          "name": "driver",
          "type": "address"
        },
        {
          "indexed": false,
          "internalType": "uint256",
          "name": "amount",
          "type": "uint256"
        }
      ],
      "name": "GreenCreditMinted",
      "type": "event"
    },
    {
      "anonymous": false,
      "inputs": [
        {
          "indexed": true,
          "internalType": "address",
          "name": "driver",
          "type": "address"
        },
        {
          "indexed": false,
          "internalType": "uint256",
          "name": "amount",
          "type": "uint256"
        }
      ],
      "name": "GreenCreditRedeemed",
      "type": "event"
    },
    {
      "anonymous": false,
      "inputs": [
        {
          "indexed": true,
          "internalType": "address",
          "name": "from",
          "type": "address"
        },
        {
          "indexed": true,
          "internalType": "address",
          "name": "to",
          "type": "address"
        },
        {
          "indexed": false,
          "internalType": "uint256",
          "name": "amount",
          "type": "uint256"
        }
      ],
      "name": "Transfer",
      "type": "event"
    },
    {
      "inputs": [
        {
          "internalType": "address",
          "name": "",
          "type": "address"
        }
      ],
      "name": "balanceOf",
      "outputs": [
        {
          "internalType": "uint256",
          "name": "",
          "type": "uint256"
        }
      ],
      "stateMutability": "view",
      "type": "function"
    },
    {
      "inputs": [],
      "name": "decimals",
      "outputs": [
        {
          "internalType": "uint8",
          "name": "",
          "type": "uint8"
        }
      ],
      "stateMutability": "view",
      "type": "function"
    },
    {
      "inputs": [
        {
          "internalType": "address",
          "name": "driver",
          "type": "address"
        },
        {
          "internalType": "uint256",
          "name": "amount",
          "type": "uint256"
        },
        {
          "internalType": "string",
          "name": "",
          "type": "string"
        }
      ],
      "name": "mintCredit",
      "outputs": [],
      "stateMutability": "nonpayable",
      "type": "function"
    },
    {
      "inputs": [],
      "name": "name",
      "outputs": [
        {
          "internalType": "string",
          "name": "",
          "type": "string"
        }
      ],
      "stateMutability": "view",
      "type": "function"
    },
    {
      "inputs": [],
      "name": "owner",
      "outputs": [
        {
          "internalType": "address",
          "name": "",
          "type": "address"
        }
      ],
      "stateMutability": "view",
      "type": "function"
    },
    {
      "inputs": [
        {
          "internalType": "address",
          "name": "driver",
          "type": "address"
        },
        {
          "internalType": "uint256",
          "name": "amount",
          "type": "uint256"
        }
      ],
      "name": "redeemCredit",
      "outputs": [],
      "stateMutability": "nonpayable",
      "type": "function"
    },
    {
      "inputs": [],
      "name": "symbol",
      "outputs": [
        {
          "internalType": "string",
          "name": "",
          "type": "string"
        }
      ],
      "stateMutability": "view",
      "type": "function"
    },
    {
      "inputs": [],
      "name": "totalSupply",
      "outputs": [
        {
          "internalType": "uint256",
          "name": "",
          "type": "uint256"
        }
      ],
      "stateMutability": "view",
      "type": "function"
    }
  ],
  "bytecode": "0x608060405234801561001057600080fd5b50600080546001600160a01b0319163317905561061e806100326000396000f3fe608060405234801561001057600080fd5b50600436106100885760003560e01c806370a082311161005b57806370a082311461011357806373e556f3146101335780638da5cb5b1461014657806395d89b411461017157600080fd5b806306fdde031461008d57806318160ddd146100cd5780632456879c146100e4578063313ce567146100f9575b600080fd5b6100b76040518060400160405280600b81526020016a11dc99595b90dc99591a5d60aa1b81525081565b6040516100c49190610468565b60405180910390f35b6100d660015481565b6040519081526020016100c4565b6100f76100f23660046104d3565b610193565b005b610101601281565b60405160ff90911681526020016100c4565b6100d661012136600461055a565b60026020526000908152604090205481565b6100f761014136600461057c565b6102f4565b600054610159906001600160a01b031681565b6040516001600160a01b0390911681526020016100c4565b6100b76040518060400160405280600381526020016247524360e81b81525081565b6000546001600160a01b031633146101df5760405162461bcd60e51b815260206004820152600a60248201526927b7363c9037bbb732b960b11b60448201526064015b60405180910390fd5b6001600160a01b0384166102265760405162461bcd60e51b815260206004820152600e60248201526d24b73b30b634b210323934bb32b960911b60448201526064016101d6565b826001600082825461023891906105bc565b90915550506001600160a01b038416600090815260026020526040812080548592906102659084906105bc565b90915550506040518381526001600160a01b038516906000907fddf252ad1be2c89b69c2b068fc378daa952ba7f163c4a11628f55a4df523b3ef9060200160405180910390a3836001600160a01b03167f9c4c59acf3aeda966426fc87eb6d23d4c574220dc19c3c64f17d734a91d2eab0846040516102e691815260200190565b60405180910390a250505050565b6000546001600160a01b0316331461033b5760405162461bcd60e51b815260206004820152600a60248201526927b7363c9037bbb732b960b11b60448201526064016101d6565b6001600160a01b03821660009081526002602052604090205481111561039a5760405162461bcd60e51b8152602060048201526014602482015273496e73756666696369656e74206372656469747360601b60448201526064016101d6565b6001600160a01b038216600090815260026020526040812080548392906103c29084906105d5565b9250508190555080600160008282546103db91906105d5565b90915550506040518181526000906001600160a01b038416907fddf252ad1be2c89b69c2b068fc378daa952ba7f163c4a11628f55a4df523b3ef9060200160405180910390a3816001600160a01b03167fb7f911655a9392baaea97fdf4aa5dbed6998d56c1d7813cefbeea57357e1ba258260405161045c91815260200190565b60405180910390a25050565b60006020808352835180602085015260005b818110156104965785810183015185820160400152820161047a565b506000604082860101526040601f19601f8301168501019250505092915050565b80356001600160a01b03811681146104ce57600080fd5b919050565b600080600080606085870312156104e957600080fd5b6104f2856104b7565b935060208501359250604085013567ffffffffffffffff8082111561051657600080fd5b818701915087601f83011261052a57600080fd5b81358181111561053957600080fd5b88602082850101111561054b57600080fd5b95989497505060200194505050565b60006020828403121561056c57600080fd5b610575826104b7565b9392505050565b6000806040838503121561058f57600080fd5b610598836104b7565b946020939093013593505050565b634e487b7160e01b600052601160045260246000fd5b808201808211156105cf576105cf6105a6565b92915050565b818103818111156105cf576105cf6105a656fea2646970667358221220d8725fffe11e756b9bd6d21fd56dec1e81ab83116dae3f6fedd1f63d9d60a26064736f6c63430008180033",
  "linkReferences": {},
  "deployedLinkReferences": {}
}