{
  "_format": "hh-sol-artifact-1",
  "contractName": "ParkingSessionManager",
  "sourceName": "contracts/ParkingSessionManager.sol",
  "abi": [
    {
      "inputs": [
        {
          "internalType": "address",
          "name": "initialRelayer",
          "type": "address"
        }
      ],
      "stateMutability": "nonpayable",
      "type": "constructor"
    },
    {
      "anonymous": false,
      "inputs": [
        {
          "indexed": true,
          "internalType": "uint256",
          "name": "sessionId",
          "type": "uint256"
        },
        {
          "indexed": false,
          "internalType": "string",
          "name": "reason",
          "type": "string"
        }
      ],
      "name": "DisputeRaised",
      "type": "event"
    },
    {
      "anonymous": false,
      "inputs": [
        {
          "indexed": true,
          "internalType": "uint256",
          "name": "sessionId",
          "type": "uint256"
        },
        {
          "indexed": false,
          "internalType": "bool",
          "name": "refunded",
          "type": "bool"
        }
      ],
      "name": "DisputeResolved",
      "type": "event"
    },
    {
      "anonymous": false,
      "inputs": [
        {
          "indexed": true,
          "internalType": "uint256",
          "name": "sessionId",
          "type": "uint256"
        },
        {
          "indexed": false,
          "internalType": "uint256",
          "name": "timestamp",
          "type": "uint256"
        }
      ],
      "name": "EntryConfirmed",
      "type": "event"
    },
    {
      "anonymous": false,
      "inputs": [
        {
          "indexed": true,
          "internalType": "uint256",
          "name": "sessionId",
          "type": "uint256"
        },
        {
          "indexed": false,
          "internalType": "uint256",
          "name": "timestamp",
          "type": "uint256"
        },
        {
          "indexed": false,
          "internalType": "uint256",
          "name": "totalAmount",
          "type": "uint256"
        }
      ],
      "name": "ExitConfirmed",
      "type": "event"
    },
    {
      "anonymous": false,
      "inputs": [
        {
          "indexed": true,
          "internalType": "uint256",
          "name": "sessionId",
          "type": "uint256"
        },
        {
          "indexed": false,
          "internalType": "bytes32",
          "name": "commitHash",
          "type": "bytes32"
        },
        {
          "indexed": false,
          "internalType": "uint256",
          "name": "pricePerMinute",
          "type": "uint256"
        }
      ],
      "name": "PricingCommitted",
      "type": "event"
    },
    {
      "anonymous": false,
      "inputs": [
        {
          "indexed": true,
          "internalType": "uint256",
          "name": "sessionId",
          "type": "uint256"
        },
        {
          "indexed": false,
          "internalType": "bytes32",
          "name": "commitHash",
          "type": "bytes32"
        },
        {
          "indexed": false,
          "internalType": "uint256",
          "name": "pricePerMinute",
          "type": "uint256"
        }
      ],
      "name": "PricingRevealed",
      "type": "event"
    },
    {
      "anonymous": false,
      "inputs": [
        {
          "indexed": true,
          "internalType": "uint256",
          "name": "sessionId",
          "type": "uint256"
        },
        {
          "indexed": true,
          "internalType": "address",
          "name": "driver",
          "type": "address"
        },
        {
          "indexed": false,
          "internalType": "uint256",
          "name": "lotId",
          "type": "uint256"
        },
        {
          "indexed": false,
          "internalType": "uint256",
          "name": "slotId",
          "type": "uint256"
        },
        {
          "indexed": false,
          "internalType": "uint256",
          "name": "timestamp",
          "type": "uint256"
        }
      ],
      "name": "SlotReserved",
      "type": "event"
    },
    {
      "inputs": [
        {
          "internalType": "uint256",
          "name": "",
          "type": "uint256"
        },
        {
          "internalType": "uint256",
          "name": "",
          "type": "uint256"
        }
      ],
      "name": "activeSessionBySlot",
      "outputs": [
        {
          "internalType": "uint256",
          "name": "",
          "type": "uint256"
        }
      ],
      "stateMutability": "view",
      "type": "function"
    },
    {
      "inputs": [
        {
          "internalType": "uint256",
          "name": "sessionId",
          "type": "uint256"
        },
        {
          "internalType": "bytes32",
          "name": "commitHash",
          "type": "bytes32"
        },
        {
          "internalType": "uint256",
          "name": "pricePerMinute",
          "type": "uint256"
        }
      ],
      "name": "commitAIPricing",
      "outputs": [],
      "stateMutability": "nonpayable",
      "type": "function"
    },
    {
      "inputs": [
        {
          "internalType": "uint256",
          "name": "sessionId",
          "type": "uint256"
        },
        {
          "internalType": "bytes32",
          "name": "",
          "type": "bytes32"
        }
      ],
      "name": "confirmEntry",
      "outputs": [],
      "stateMutability": "nonpayable",
      "type": "function"
    },
    {
      "inputs": [
        {
          "internalType": "uint256",
          "name": "sessionId",
          "type": "uint256"
        }
      ],
      "name": "confirmExit",
      "outputs": [],
      "stateMutability": "nonpayable",
      "type": "function"
    },
    {
      "inputs": [
        {
          "internalType": "uint256",
          "name": "lotId",
          "type": "uint256"
        }
      ],
      "name": "getActiveSessionsForLot",
      "outputs": [
        {
          "internalType": "uint256[]",
          "name": "",
          "type": "uint256[]"
        }
      ],
      "stateMutability": "view",
      "type": "function"
    },
    {
      "inputs": [
        {
          "internalType": "uint256",
          "name": "lotId",
          "type": "uint256"
        }
      ],
      "name": "getLotOccupancy",
      "outputs": [
        {
          "internalType": "uint256",
          "name": "",
          "type": "uint256"
        }
      ],
      "stateMutability": "view",
      "type": "function"
    },
    {
      "inputs": [
        {
          "internalType": "uint256",
          "name": "sessionId",
          "type": "uint256"
        }
      ],
      "name": "getSession",
      "outputs": [
        {
          "components": [
            {
              "internalType": "uint256",
              "name": "sessionId",
              "type": "uint256"
            },
            {
              "internalType": "address",
              "name": "driver",
              "type": "address"
            },
            {
              "internalType": "uint256",
              "name": "lotId",
              "type": "uint256"
            },
            {
              "internalType": "uint256",
              "name": "slotId",
              "type": "uint256"
            },
            {
              "internalType": "enum ParkingSessionManager.SessionState",
              "name": "state",
              "type": "uint8"
            },
            {
              "internalType": "bytes32",
              "name": "aiPricingCommitHash",
              "type": "bytes32"
            },
            {
              "internalType": "uint256",
              "name": "finalPricePerMinute",
              "type": "uint256"
            },
            {
              "internalType": "uint256",
              "name": "entryTimestamp",
              "type": "uint256"
            },
            {
              "internalType": "uint256",
              "name": "exitTimestamp",
              "type": "uint256"
            },
            {
              "internalType": "uint256",
              "name": "amountEscrowed",
              "type": "uint256"
            },
            {
              "internalType": "bool",
              "name": "disputeRaised",
              "type": "bool"
            }
          ],
          "internalType": "struct ParkingSessionManager.Session",
          "name": "",
          "type": "tuple"
        }
      ],
      "stateMutability": "view",
      "type": "function"
    },
    {
      "inputs": [
        {
          "components": [
            {
              "internalType": "uint256",
              "name": "occupancyBps",
              "type": "uint256"
            },
            {
              "internalType": "uint256",
              "name": "timeOfDay",
              "type": "uint256"
            },
            {
              "internalType": "uint256",
              "name": "dayOfWeek",
              "type": "uint256"
            },
            {
              "internalType": "uint256",
              "name": "demandFactorBps",
              "type": "uint256"
            },
            {
              "internalType": "uint256",
              "name": "basePriceCents",
              "type": "uint256"
            },
            {
              "internalType": "string",
              "name": "weatherFlag",
              "type": "string"
            },
            {
              "internalType": "string",
              "name": "nonce",
              "type": "string"
            }
          ],
          "internalType": "struct ParkingSessionManager.PricingInputs",
          "name": "inputs",
          "type": "tuple"
        }
      ],
      "name": "hashPricingInputs",
      "outputs": [
        {
          "internalType": "bytes32",
          "name": "",
          "type": "bytes32"
        }
      ],
      "stateMutability": "pure",
      "type": "function"
    },
    {
      "inputs": [],
      "name": "nextSessionId",
      "outputs": [
        {
          "internalType": "uint256",
          "name": "",
          "type": "uint256"
        }
      ],
      "stateMutability": "view",
      "type": "function"
    },
    {
      "inputs": [],
      "name": "owner",
      "outputs": [
        {
          "internalType": "address",
          "name": "",
          "type": "address"
        }
      ],
      "stateMutability": "view",
      "type": "function"
    },
    {
      "inputs": [
        {
          "internalType": "uint256",
          "name": "sessionId",
          "type": "uint256"
        },
        {
          "internalType": "string",
          "name": "reason",
          "type": "string"
        }
      ],
      "name": "raiseDispute",
      "outputs": [],
      "stateMutability": "nonpayable",
      "type": "function"
    },
    {
      "inputs": [],
      "name": "relayer",
      "outputs": [
        {
          "internalType": "address",
          "name": "",
          "type": "address"
        }
      ],
      "stateMutability": "view",
      "type": "function"
    },
    {
      "inputs": [
        {
          "internalType": "uint256",
          "name": "lotId",
          "type": "uint256"
        },
        {
          "internalType": "uint256",
          "name": "slotId",
          "type": "uint256"
        }
      ],
      "name": "reserveSlot",
      "outputs": [
        {
          "internalType": "uint256",
          "name": "",
          "type": "uint256"
        }
      ],
      "stateMutability": "nonpayable",
      "type": "function"
    },
    {
      "inputs": [
        {
          "internalType": "uint256",
          "name": "sessionId",
          "type": "uint256"
        },
        {
          "internalType": "bool",
          "name": "refundDriver",
          "type": "bool"
        }
      ],
      "name": "resolveDispute",
      "outputs": [],
      "stateMutability": "nonpayable",
      "type": "function"
    },
    {
      "inputs": [
        {
          "internalType": "uint256",
          "name": "sessionId",
          "type": "uint256"
        },
        {
          "components": [
            {
              "internalType": "uint256",
              "name": "occupancyBps",
              "type": "uint256"
            },
            {
              "internalType": "uint256",
              "name": "timeOfDay",
              "type": "uint256"
            },
            {
              "internalType": "uint256",
              "name": "dayOfWeek",
              "type": "uint256"
            },
            {
              "internalType": "uint256",
              "name": "demandFactorBps",
              "type": "uint256"
            },
            {
              "internalType": "uint256",
              "name": "basePriceCents",
              "type": "uint256"
            },
            {
              "internalType": "string",
              "name": "weatherFlag",
              "type": "string"
            },
            {
              "internalType": "string",
              "name": "nonce",
              "type": "string"
            }
          ],
          "internalType": "struct ParkingSessionManager.PricingInputs",
          "name": "inputs",
          "type": "tuple"
        },
        {
          "internalType": "uint256",
          "name": "finalPrice",
          "type": "uint256"
        }
      ],
      "name": "revealPricing",
      "outputs": [],
      "stateMutability": "nonpayable",
      "type": "function"
    },
    {
      "inputs": [
        {
          "internalType": "uint256",
          "name": "",
          "type": "uint256"
        }
      ],
      "name": "sessions",
      "outputs": [
        {
          "internalType": "uint256",
          "name": "sessionId",
          "type": "uint256"
        },
        {
          "internalType": "address",
          "name": "driver",
          "type": "address"
        },
        {
          "internalType": "uint256",
          "name": "lotId",
          "type": "uint256"
        },
        {
          "internalType": "uint256",
          "name": "slotId",
          "type": "uint256"
        },
        {
          "internalType": "enum ParkingSessionManager.SessionState",
          "name": "state",
          "type": "uint8"
        },
        {
          "internalType": "bytes32",
          "name": "aiPricingCommitHash",
          "type": "bytes32"
        },
        {
          "internalType": "uint256",
          "name": "finalPricePerMinute",
          "type": "uint256"
        },
        {
          "internalType": "uint256",
          "name": "entryTimestamp",
          "type": "uint256"
        },
        {
          "internalType": "uint256",
          "name": "exitTimestamp",
          "type": "uint256"
        },
        {
          "internalType": "uint256",
          "name": "amountEscrowed",
          "type": "uint256"
        },
        {
          "internalType": "bool",
          "name": "disputeRaised",
          "type": "bool"
        }
      ],
      "stateMutability": "view",
      "type": "function"
    },
    {
      "inputs": [
        {
          "internalType": "address",
          "name": "nextRelayer",
          "type": "address"
        }
      ],
      "name": "setRelayer",
      "outputs": [],
      "stateMutability": "nonpayable",
      "type": "function"
    }
  ],
  "bytecode": "0x6080604052600160025534801561001557600080fd5b5060405161177738038061177783398101604081905261003491610083565b600080546001600160a01b031916331790556001600160a01b0381161561005b578061005d565b335b600180546001600160a01b0319166001600160a01b0392909216919091179055506100b3565b60006020828403121561009557600080fd5b81516001600160a01b03811681146100ac57600080fd5b9392505050565b6116b5806100c26000396000f3fe608060405234801561001057600080fd5b506004361061010b5760003560e01c806383c4b7a3116100a25780638ebce2f7116100715780638ebce2f7146102a5578063b5e4c45e146102d0578063e392b0f4146102e3578063e3afc3b914610303578063e4eb55e61461031657600080fd5b806383c4b7a3146101c45780638406c079146102545780638d7922781461027f5780638da5cb5b1461029257600080fd5b806349d3181d116100de57806349d3181d146101785780635aef573c1461018b5780636548e9bc1461019e5780636fcac50b146101b157600080fd5b8063346255201461011057806334b25ee214610125578063402ff0db1461013857806349bbf7da14610161575b600080fd5b61012361011e36600461113c565b610329565b005b61012361013336600461118c565b610473565b61014b6101463660046111c1565b61054b565b6040516101589190611212565b60405180910390f35b61016a60025481565b604051908152602001610158565b6101236101863660046112b0565b610619565b6101236101993660046112dc565b61076f565b6101236101ac366004611358565b61087b565b61016a6101bf366004611388565b61092c565b61023d6101d23660046111c1565b600360208190526000918252604090912080546001820154600283015493830154600484015460058501546006860154600787015460088801546009890154600a9099015497996001600160a01b03909716989697959660ff9586169694959394929391929091168b565b6040516101589b9a999897969594939291906113aa565b600154610267906001600160a01b031681565b6040516001600160a01b039091168152602001610158565b61016a61028d3660046111c1565b610b41565b600054610267906001600160a01b031681565b61016a6102b3366004611388565b600460209081526000928352604080842090915290825290205481565b61016a6102de366004611415565b610beb565b6102f66102f13660046111c1565b610c52565b6040516101589190611452565b6101236103113660046111c1565b610e18565b610123610324366004611388565b610fcd565b60015483906001600160a01b031633148061035d57506000818152600360205260409020600101546001600160a01b031633145b6103825760405162461bcd60e51b815260040161037990611496565b60405180910390fd5b60008481526003602052604090206002600482015460ff1660078111156103ab576103ab6111da565b146103c85760405162461bcd60e51b8152600401610379906114be565b60006103d385610beb565b90508160050154811461041a5760405162461bcd60e51b815260206004820152600f60248201526e086dedadad2e840dad2e6dac2e8c6d608b1b6044820152606401610379565b60048201805460ff1916600317905560068201849055604080518281526020810186905287917f745aef3f133097b50aa6e437987e7d26666a20325c47a3c0487dd06188a6e864910160405180910390a2505050505050565b6000546001600160a01b031633146104ba5760405162461bcd60e51b815260206004820152600a60248201526927b7363c9037bbb732b960b11b6044820152606401610379565b60008281526003602052604090206006600482015460ff1660078111156104e3576104e36111da565b146105005760405162461bcd60e51b8152600401610379906114be565b60048101805460ff19166007179055604051821515815283907f5a87909bff68caaaaf0b3fd9c74eeccc928832f879315e5c6fb7a73612f26c0c9060200160405180910390a2505050565b6105536110ab565b6000828152600360208181526040928390208351610160810185528154815260018201546001600160a01b0316928101929092526002810154938201939093529082015460608201526004820154909190608083019060ff1660078111156105bd576105bd6111da565b60078111156105ce576105ce6111da565b815260058201546020820152600682015460408201526007820154606082015260088201546080820152600982015460a0820152600a9091015460ff16151560c09091015292915050565b60015483906001600160a01b031633148061064d57506000818152600360205260409020600101546001600160a01b031633145b6106695760405162461bcd60e51b815260040161037990611496565b600084815260036020526040812090600482015460ff166007811115610691576106916111da565b14806106b557506001600482015460ff1660078111156106b3576106b36111da565b145b6106d15760405162461bcd60e51b8152600401610379906114be565b8361070f5760405162461bcd60e51b815260206004820152600e60248201526d125b9d985b1a590818dbdb5b5a5d60921b6044820152606401610379565b60048101805460ff191660021790556005810184905560068101839055604080518581526020810185905286917f99f5cc3933a80ff922f6f06b5100e49049fafa0b680b118b2c935e06c971dfac91015b60405180910390a25050505050565b60015483906001600160a01b03163314806107a357506000818152600360205260409020600101546001600160a01b031633145b6107bf5760405162461bcd60e51b815260040161037990611496565b600084815260036020526040902060048082015460ff1660078111156107e7576107e76111da565b148061080b57506005600482015460ff166007811115610809576108096111da565b145b6108275760405162461bcd60e51b8152600401610379906114be565b60048101805460ff19908116600617909155600a82018054909116600117905560405185907fe07ad455e24561261e9047aab2f668ae1fc2cc6fda35021764673613b888836d90610760908790879061150e565b6000546001600160a01b031633146108c25760405162461bcd60e51b815260206004820152600a60248201526927b7363c9037bbb732b960b11b6044820152606401610379565b6001600160a01b03811661090a5760405162461bcd60e51b815260206004820152600f60248201526e24b73b30b634b2103932b630bcb2b960891b6044820152606401610379565b600180546001600160a01b0319166001600160a01b0392909216919091179055565b6000828152600460209081526040808320848452909152812054156109895760405162461bcd60e51b8152602060048201526013602482015272536c6f7420616c72656164792061637469766560681b6044820152606401610379565b600280546000918261099a83611538565b9091555060408051610160810182528281523360208083019182528284018981526060840189815260006080860181815260a0870182905260c0870182905260e08701829052610100870182905261012087018290526101408701829052888252600394859052969020855181559351600180860180546001600160a01b0319166001600160a01b039093169290921790915591516002850155519183019190915592516004820180549596509294919390929160ff191690836007811115610a6557610a656111da565b021790555060a082015160058281019190915560c0830151600683015560e083015160078301556101008301516008830155610120830151600983015561014090920151600a909101805460ff191691151591909117905560008581526004602090815260408083208784528252808320859055878352928152828220805460018101825590835291819020909101839055815186815290810185905242818301529051339183917fc627cd0ef37f32a4958495dff40e0dd4d39842f65ce7435d08b181dd28ed1290916060908290030190a390505b92915050565b600081815260056020526040812081805b8254811015610be357600060036000858481548110610b7357610b73611551565b906000526020600020015481526020019081526020016000209050838281548110610ba057610ba0611551565b60009182526020808320909101548883526004825260408084206003860154855290925291205403610bda5782610bd681611538565b9350505b50600101610b52565b509392505050565b600081356020830135604084013560608501356080860135610c1060a0880188611567565b610c1d60c08a018a611567565b604051602001610c35999897969594939291906115b5565b604051602081830303815290604052805190602001209050919050565b6000818152600560205260408120606091805b8254811015610cf657600060036000858481548110610c8657610c86611551565b906000526020600020015481526020019081526020016000209050838281548110610cb357610cb3611551565b60009182526020808320909101548883526004825260408084206003860154855290925291205403610ced5782610ce981611538565b9350505b50600101610c65565b5060008167ffffffffffffffff811115610d1257610d1261160a565b604051908082528060200260200182016040528015610d3b578160200160208202803683370190505b5090506000805b8454811015610e0d57600060036000878481548110610d6357610d63611551565b906000526020600020015481526020019081526020016000209050858281548110610d9057610d90611551565b60009182526020808320909101548a83526004825260408084206003860154855290925291205403610e0457858281548110610dce57610dce611551565b9060005260206000200154848480610de590611538565b955081518110610df757610df7611551565b6020026020010181815250505b50600101610d42565b509095945050505050565b60015481906001600160a01b0316331480610e4c57506000818152600360205260409020600101546001600160a01b031633145b610e685760405162461bcd60e51b815260040161037990611496565b60008281526003602052604090206001600482015460ff166007811115610e9157610e916111da565b1480610eb557506002600482015460ff166007811115610eb357610eb36111da565b145b80610ed857506003600482015460ff166007811115610ed657610ed66111da565b145b610ef45760405162461bcd60e51b8152600401610379906114be565b6004818101805460ff191682179055426008830155600282015460009081526020918252604080822060038501548352909252908120819055600782015415801590610f435750600682015415155b15610f8b576000603c83600701548460080154610f609190611620565b610f6a9190611633565b610f75906001611655565b9050826006015481610f879190611668565b9150505b604080514281526020810183905285917f13f477b9aaef6b0aba58e70cc35504065d1bec0006611a14f8737305eccbffe591015b60405180910390a250505050565b60015482906001600160a01b031633148061100157506000818152600360205260409020600101546001600160a01b031633145b61101d5760405162461bcd60e51b815260040161037990611496565b600083815260036020526040812090600482015460ff166007811115611045576110456111da565b146110625760405162461bcd60e51b8152600401610379906114be565b60048101805460ff19166001179055426007820181905560405190815284907f12a257e3484dd377e09ddc5328551984f41995903a9f4172b0b18057decb9aca90602001610fbf565b6040518061016001604052806000815260200160006001600160a01b031681526020016000815260200160008152602001600060078111156110ef576110ef6111da565b815260200160008019168152602001600081526020016000815260200160008152602001600081526020016000151581525090565b600060e0828403121561113657600080fd5b50919050565b60008060006060848603121561115157600080fd5b83359250602084013567ffffffffffffffff81111561116f57600080fd5b61117b86828701611124565b925050604084013590509250925092565b6000806040838503121561119f57600080fd5b82359150602083013580151581146111b657600080fd5b809150509250929050565b6000602082840312156111d357600080fd5b5035919050565b634e487b7160e01b600052602160045260246000fd5b6008811061120e57634e487b7160e01b600052602160045260246000fd5b9052565b81518152602080830151610160830191611236908401826001600160a01b03169052565b506040830151604083015260608301516060830152608083015161125d60808401826111f0565b5060a083015160a083015260c083015160c083015260e083015160e0830152610100808401518184015250610120808401518184015250610140808401516112a88285018215159052565b505092915050565b6000806000606084860312156112c557600080fd5b505081359360208301359350604090920135919050565b6000806000604084860312156112f157600080fd5b83359250602084013567ffffffffffffffff8082111561131057600080fd5b818601915086601f83011261132457600080fd5b81358181111561133357600080fd5b87602082850101111561134557600080fd5b6020830194508093505050509250925092565b60006020828403121561136a57600080fd5b81356001600160a01b038116811461138157600080fd5b9392505050565b6000806040838503121561139b57600080fd5b50508035926020909101359150565b8b81526001600160a01b038b166020820152604081018a90526060810189905261016081016113dc608083018a6111f0565b8760a08301528660c08301528560e083015284610100830152836101208301528215156101408301529c9b505050505050505050505050565b60006020828403121561142757600080fd5b813567ffffffffffffffff81111561143e57600080fd5b61144a84828501611124565b949350505050565b6020808252825182820181905260009190848201906040850190845b8181101561148a5783518352928401929184019160010161146e565b50909695505050505050565b6020808252600e908201526d139bdd08185d5d1a1bdc9a5e995960921b604082015260600190565b6020808252600d908201526c496e76616c696420737461746560981b604082015260600190565b81835281816020850137506000828201602090810191909152601f909101601f19169091010190565b60208152600061144a6020830184866114e5565b634e487b7160e01b600052601160045260246000fd5b60006001820161154a5761154a611522565b5060010190565b634e487b7160e01b600052603260045260246000fd5b6000808335601e1984360301811261157e57600080fd5b83018035915067ffffffffffffffff82111561159957600080fd5b6020019150368190038213156115ae57600080fd5b9250929050565b89815288602082015287604082015286606082015285608082015260e060a082015260006115e760e0830186886114e5565b82810360c08401526115fa8185876114e5565b9c9b505050505050505050505050565b634e487b7160e01b600052604160045260246000fd5b81810381811115610b3b57610b3b611522565b60008261165057634e487b7160e01b600052601260045260246000fd5b500490565b80820180821115610b3b57610b3b611522565b8082028115828204841417610b3b57610b3b61152256fea2646970667358221220a890dc72cc9c138f71ef675615f51b9d55961d5fd7dc82d7499c90544f7b529064736f6c63430008180033",
  "linkReferences": {},
  "deployedLinkReferences": {}
}