{
  "_format": "hh-sol-artifact-1",
  "contractName": "ParkCoin",
  "sourceName": "contracts/ParkCoin.sol",
  "abi": [
    {
      "inputs": [],
      "stateMutability": "nonpayable",
      "type": "constructor"
    },
    {
      "anonymous": false,
      "inputs": [
        {
          "indexed": true,
          "internalType": "address",
          "name": "owner",
          "type": "address"
        },
        {
          "indexed": true,
          "internalType": "address",
          "name": "spender",
          "type": "address"
        },
        {
          "indexed": false,
          "internalType": "uint256",
          "name": "amount",
          "type": "uint256"
        }
      ],
      "name": "Approval",
      "type": "event"
    },
    {
      "anonymous": false,
      "inputs": [
        {
          "indexed": true,
          "internalType": "address",
          "name": "from",
          "type": "address"
        },
        {
          "indexed": true,
          "internalType": "address",
          "name": "to",
          "type": "address"
        },
        {
          "indexed": false,
          "internalType": "uint256",
          "name": "amount",
          "type": "uint256"
        }
      ],
      "name": "Transfer",
      "type": "event"
    },
    {
      "inputs": [
        {
          "internalType": "address",
          "name": "",
          "type": "address"
        },
        {
          "internalType": "address",
          "name": "",
          "type": "address"
        }
      ],
      "name": "allowance",
      "outputs": [
        {
          "internalType": "uint256",
          "name": "",
          "type": "uint256"
        }
      ],
      "stateMutability": "view",
      "type": "function"
    },
    {
      "inputs": [
        {
          "internalType": "address",
          "name": "spender",
          "type": "address"
        },
        {
          "internalType": "uint256",
          "name": "amount",
          "type": "uint256"
        }
      ],
      "name": "approve",
      "outputs": [
        {
          "internalType": "bool",
          "name": "",
          "type": "bool"
        }
      ],
      "stateMutability": "nonpayable",
      "type": "function"
    },
    {
      "inputs": [
        {
          "internalType": "address",
          "name": "",
          "type": "address"
        }
      ],
      "name": "balanceOf",
      "outputs": [
        {
          "internalType": "uint256",
          "name": "",
          "type": "uint256"
        }
      ],
      "stateMutability": "view",
      "type": "function"
    },
    {
      "inputs": [],
      "name": "decimals",
      "outputs": [
        {
          "internalType": "uint8",
          "name": "",
          "type": "uint8"
        }
      ],
      "stateMutability": "view",
      "type": "function"
    },
    {
      "inputs": [
        {
          "internalType": "address",
          "name": "to",
          "type": "address"
        },
        {
          "internalType": "uint256",
          "name": "amount",
          "type": "uint256"
        }
      ],
      "name": "mint",
      "outputs": [],
      "stateMutability": "nonpayable",
      "type": "function"
    },
    {
      "inputs": [],
      "name": "name",
      "outputs": [
        {
          "internalType": "string",
          "name": "",
          "type": "string"
        }
      ],
      "stateMutability": "view",
      "type": "function"
    },
    {
      "inputs": [],
      "name": "owner",
      "outputs": [
        {
          "internalType": "address",
          "name": "",
          "type": "address"
        }
      ],
      "stateMutability": "view",
      "type": "function"
    },
    {
      "inputs": [],
      "name": "symbol",
      "outputs": [
        {
          "internalType": "string",
          "name": "",
          "type": "string"
        }
      ],
      "stateMutability": "view",
      "type": "function"
    },
    {
      "inputs": [],
      "name": "totalSupply",
      "outputs": [
        {
          "internalType": "uint256",
          "name": "",
          "type": "uint256"
        }
      ],
      "stateMutability": "view",
      "type": "function"
    },
    {
      "inputs": [
        {
          "internalType": "address",
          "name": "to",
          "type": "address"
        },
        {
          "internalType": "uint256",
          "name": "amount",
          "type": "uint256"
        }
      ],
      "name": "transfer",
      "outputs": [
        {
          "internalType": "bool",
          "name": "",
          "type": "bool"
        }
      ],
      "stateMutability": "nonpayable",
      "type": "function"
    },
    {
      "inputs": [
        {
          "internalType": "address",
          "name": "from",
          "type": "address"
        },
        {
          "internalType": "address",
          "name": "to",
          "type": "address"
        },
        {
          "internalType": "uint256",
          "name": "amount",
          "type": "uint256"
        }
      ],
      "name": "transferFrom",
      "outputs": [
        {
          "internalType": "bool",
          "name": "",
          "type": "bool"
        }
      ],
      "stateMutability": "nonpayable",
      "type": "function"
    }
  ],
  "bytecode": "0x608060405234801561001057600080fd5b50600080546001600160a01b0319163317905561074b806100326000396000f3fe608060405234801561001057600080fd5b50600436106100a95760003560e01c806340c10f191161007157806340c10f191461015257806370a08231146101675780638da5cb5b1461018757806395d89b41146101b2578063a9059cbb146101d5578063dd62ed3e146101e857600080fd5b806306fdde03146100ae578063095ea7b3146100eb57806318160ddd1461010e57806323b872dd14610125578063313ce56714610138575b600080fd5b6100d5604051806040016040528060088152602001672830b935a1b7b4b760c11b81525081565b6040516100e291906105b3565b60405180910390f35b6100fe6100f936600461061e565b610213565b60405190151581526020016100e2565b61011760015481565b6040519081526020016100e2565b6100fe610133366004610648565b610280565b610140601281565b60405160ff90911681526020016100e2565b61016561016036600461061e565b610331565b005b610117610175366004610684565b60026020526000908152604090205481565b60005461019a906001600160a01b031681565b6040516001600160a01b0390911681526020016100e2565b6100d5604051806040016040528060048152602001635041524b60e01b81525081565b6100fe6101e336600461061e565b61044b565b6101176101f63660046106a6565b600360209081526000928352604080842090915290825290205481565b3360008181526003602090815260408083206001600160a01b038716808552925280832085905551919290917f8c5be1e5ebec7d5bd14f71427d1e84f3dd0314c0f7b2291e5b200ac8c7c3b9259061026e9086815260200190565b60405180910390a35060015b92915050565b6001600160a01b0383166000908152600360209081526040808320338452909152812054828110156102ed5760405162461bcd60e51b8152602060048201526011602482015270416c6c6f77616e636520746f6f206c6f7760781b60448201526064015b60405180910390fd5b6102f783826106ef565b6001600160a01b0386166000908152600360209081526040808320338452909152902055610326858585610461565b506001949350505050565b6000546001600160a01b031633146103785760405162461bcd60e51b815260206004820152600a60248201526927b7363c9037bbb732b960b11b60448201526064016102e4565b6001600160a01b0382166103c25760405162461bcd60e51b8152602060048201526011602482015270125b9d985b1a59081c9958da5c1a595b9d607a1b60448201526064016102e4565b80600160008282546103d49190610702565b90915550506001600160a01b03821660009081526002602052604081208054839290610401908490610702565b90915550506040518181526001600160a01b038316906000907fddf252ad1be2c89b69c2b068fc378daa952ba7f163c4a11628f55a4df523b3ef9060200160405180910390a35050565b6000610458338484610461565b50600192915050565b6001600160a01b0382166104ab5760405162461bcd60e51b8152602060048201526011602482015270125b9d985b1a59081c9958da5c1a595b9d607a1b60448201526064016102e4565b6001600160a01b0383166000908152600260205260409020548111156105055760405162461bcd60e51b815260206004820152600f60248201526e42616c616e636520746f6f206c6f7760881b60448201526064016102e4565b6001600160a01b0383166000908152600260205260408120805483929061052d9084906106ef565b90915550506001600160a01b0382166000908152600260205260408120805483929061055a908490610702565b92505081905550816001600160a01b0316836001600160a01b03167fddf252ad1be2c89b69c2b068fc378daa952ba7f163c4a11628f55a4df523b3ef836040516105a691815260200190565b60405180910390a3505050565b60006020808352835180602085015260005b818110156105e1578581018301518582016040015282016105c5565b506000604082860101526040601f19601f8301168501019250505092915050565b80356001600160a01b038116811461061957600080fd5b919050565b6000806040838503121561063157600080fd5b61063a83610602565b946020939093013593505050565b60008060006060848603121561065d57600080fd5b61066684610602565b925061067460208501610602565b9150604084013590509250925092565b60006020828403121561069657600080fd5b61069f82610602565b9392505050565b600080604083850312156106b957600080fd5b6106c283610602565b91506106d060208401610602565b90509250929050565b634e487b7160e01b600052601160045260246000fd5b8181038181111561027a5761027a6106d9565b8082018082111561027a5761027a6106d956fea26469706673582212209652158ec0327d52ee57af6daa0720a8cf83f1a6d8b4ae874fcee46613ca926664736f6c63430008180033",
  "linkReferences": {},
  "deployedLinkReferences": {}
}