{
  "_format": "hh-sol-artifact-1",
  "contractName": "TrustScoreSBT",
  "sourceName": "contracts/TrustScoreSBT.sol",
  "abi": [
    {
      "inputs": [],
      "stateMutability": "nonpayable",
      "type": "constructor"
    },
    {
      "anonymous": false,
      "inputs": [
        {
          "indexed": true,
          "internalType": "address",
          "name": "from",
          "type": "address"
        },
        {
          "indexed": true,
          "internalType": "address",
          "name": "to",
          "type": "address"
        },
        {
          "indexed": true,
          "internalType": "uint256",
          "name": "tokenId",
          "type": "uint256"
        }
      ],
      "name": "Transfer",
      "type": "event"
    },
    {
      "anonymous": false,
      "inputs": [
        {
          "indexed": true,
          "internalType": "address",
          "name": "driver",
          "type": "address"
        },
        {
          "indexed": false,
          "internalType": "int256",
          "name": "delta",
          "type": "int256"
        },
        {
          "indexed": false,
          "internalType": "string",
          "name": "reasonCode",
          "type": "string"
        }
      ],
      "name": "TrustScoreAdjusted",
      "type": "event"
    },
    {
      "inputs": [
        {
          "internalType": "address",
          "name": "driver",
          "type": "address"
        },
        {
          "internalType": "int256",
          "name": "delta",
          "type": "int256"
        },
        {
          "internalType": "string",
          "name": "reasonCode",
          "type": "string"
        }
      ],
      "name": "adjustScore",
      "outputs": [],
      "stateMutability": "nonpayable",
      "type": "function"
    },
    {
      "inputs": [
        {
          "internalType": "address",
          "name": "driver",
          "type": "address"
        }
      ],
      "name": "getScore",
      "outputs": [
        {
          "internalType": "uint256",
          "name": "",
          "type": "uint256"
        }
      ],
      "stateMutability": "view",
      "type": "function"
    },
    {
      "inputs": [
        {
          "internalType": "address",
          "name": "driver",
          "type": "address"
        }
      ],
      "name": "mintInitialScore",
      "outputs": [],
      "stateMutability": "nonpayable",
      "type": "function"
    },
    {
      "inputs": [],
      "name": "name",
      "outputs": [
        {
          "internalType": "string",
          "name": "",
          "type": "string"
        }
      ],
      "stateMutability": "view",
      "type": "function"
    },
    {
      "inputs": [],
      "name": "nextTokenId",
      "outputs": [
        {
          "internalType": "uint256",
          "name": "",
          "type": "uint256"
        }
      ],
      "stateMutability": "view",
      "type": "function"
    },
    {
      "inputs": [],
      "name": "owner",
      "outputs": [
        {
          "internalType": "address",
          "name": "",
          "type": "address"
        }
      ],
      "stateMutability": "view",
      "type": "function"
    },
    {
      "inputs": [
        {
          "internalType": "uint256",
          "name": "",
          "type": "uint256"
        }
      ],
      "name": "ownerOf",
      "outputs": [
        {
          "internalType": "address",
          "name": "",
          "type": "address"
        }
      ],
      "stateMutability": "view",
      "type": "function"
    },
    {
      "inputs": [
        {
          "internalType": "address",
          "name": "",
          "type": "address"
        },
        {
          "internalType": "address",
          "name": "",
          "type": "address"
        },
        {
          "internalType": "uint256",
          "name": "",
          "type": "uint256"
        }
      ],
      "name": "safeTransferFrom",
      "outputs": [],
      "stateMutability": "pure",
      "type": "function"
    },
    {
      "inputs": [
        {
          "internalType": "address",
          "name": "",
          "type": "address"
        },
        {
          "internalType": "address",
          "name": "",
          "type": "address"
        },
        {
          "internalType": "uint256",
          "name": "",
          "type": "uint256"
        },
        {
          "internalType": "bytes",
          "name": "",
          "type": "bytes"
        }
      ],
      "name": "safeTransferFrom",
      "outputs": [],
      "stateMutability": "pure",
      "type": "function"
    },
    {
      "inputs": [
        {
          "internalType": "address",
          "name": "",
          "type": "address"
        }
      ],
      "name": "scoreOf",
      "outputs": [
        {
          "internalType": "uint256",
          "name": "",
          "type": "uint256"
        }
      ],
      "stateMutability": "view",
      "type": "function"
    },
    {
      "inputs": [],
      "name": "symbol",
      "outputs": [
        {
          "internalType": "string",
          "name": "",
          "type": "string"
        }
      ],
      "stateMutability": "view",
      "type": "function"
    },
    {
      "inputs": [
        {
          "internalType": "address",
          "name": "",
          "type": "address"
        }
      ],
      "name": "tokenOf",
      "outputs": [
        {
          "internalType": "uint256",
          "name": "",
          "type": "uint256"
        }
      ],
      "stateMutability": "view",
      "type": "function"
    },
    {
      "inputs": [
        {
          "internalType": "address",
          "name": "",
          "type": "address"
        },
        {
          "internalType": "address",
          "name": "",
          "type": "address"
        },
        {
          "internalType": "uint256",
          "name": "",
          "type": "uint256"
        }
      ],
      "name": "transferFrom",
      "outputs": [],
      "stateMutability": "pure",
      "type": "function"
    }
  ],
  "bytecode": "0x60806040526001805534801561001457600080fd5b50600080546001600160a01b0319163317905561080d806100366000396000f3fe608060405234801561001057600080fd5b50600436106100cf5760003560e01c80636352211e1161008c5780638da5cb5b116100665780638da5cb5b146101ea57806395d89b41146101fd578063b88d4fde14610220578063d47875d01461022e57600080fd5b80636352211e1461018d57806374c76846146101ce57806375794a3c146101e157600080fd5b806306fdde03146100d4578063133af4561461011757806323b872dd1461014557806342842e0e1461014557806342ec38e21461015a578063468384fa1461017a575b600080fd5b6101016040518060400160405280600e81526020016d151c9d5cdd14d8dbdc994814d09560921b81525081565b60405161010e9190610556565b60405180910390f35b6101376101253660046105c1565b60046020526000908152604090205481565b60405190815260200161010e565b6101586101533660046105e3565b610257565b005b6101376101683660046105c1565b60026020526000908152604090205481565b610158610188366004610668565b6102a4565b6101b661019b3660046106c2565b6003602052600090815260409020546001600160a01b031681565b6040516001600160a01b03909116815260200161010e565b6101586101dc3660046105c1565b6103e5565b61013760015481565b6000546101b6906001600160a01b031681565b610101604051806040016040528060048152602001631514d09560e21b81525081565b6101586101533660046106db565b61013761023c3660046105c1565b6001600160a01b031660009081526004602052604090205490565b60405162461bcd60e51b815260206004820152601b60248201527f536f756c626f756e643a206e6f6e2d7472616e7366657261626c65000000000060448201526064015b60405180910390fd5b6000546001600160a01b031633146102eb5760405162461bcd60e51b815260206004820152600a60248201526927b7363c9037bbb732b960b11b604482015260640161029b565b6001600160a01b03841660009081526002602052604081205490036103455760405162461bcd60e51b815260206004820152601060248201526f14d8dbdc99481b9bdd081b5a5b9d195960821b604482015260640161029b565b6001600160a01b038416600090815260046020526040812054610369908590610760565b90506000811215610378575060005b6103e881131561038757506103e85b6001600160a01b03851660008181526004602052604090819020839055517f42076cb2f99350047f1f02b3fdc3df76d8a5f0b8166d2f4ab4cf1e496767fd27906103d690879087908790610788565b60405180910390a25050505050565b6000546001600160a01b0316331461042c5760405162461bcd60e51b815260206004820152600a60248201526927b7363c9037bbb732b960b11b604482015260640161029b565b6001600160a01b0381166104735760405162461bcd60e51b815260206004820152600e60248201526d24b73b30b634b210323934bb32b960911b604482015260640161029b565b6001600160a01b038116600090815260026020526040902054156104ca5760405162461bcd60e51b815260206004820152600e60248201526d105b1c9958591e481b5a5b9d195960921b604482015260640161029b565b60018054600091826104db836107be565b909155506001600160a01b03831660008181526002602090815260408083208590558483526003825280832080546001600160a01b0319168517905583835260049091528082206102bc90555192935083927fddf252ad1be2c89b69c2b068fc378daa952ba7f163c4a11628f55a4df523b3ef908290a45050565b60006020808352835180602085015260005b8181101561058457858101830151858201604001528201610568565b506000604082860101526040601f19601f8301168501019250505092915050565b80356001600160a01b03811681146105bc57600080fd5b919050565b6000602082840312156105d357600080fd5b6105dc826105a5565b9392505050565b6000806000606084860312156105f857600080fd5b610601846105a5565b925061060f602085016105a5565b9150604084013590509250925092565b60008083601f84011261063157600080fd5b50813567ffffffffffffffff81111561064957600080fd5b60208301915083602082850101111561066157600080fd5b9250929050565b6000806000806060858703121561067e57600080fd5b610687856105a5565b935060208501359250604085013567ffffffffffffffff8111156106aa57600080fd5b6106b68782880161061f565b95989497509550505050565b6000602082840312156106d457600080fd5b5035919050565b6000806000806000608086880312156106f357600080fd5b6106fc866105a5565b945061070a602087016105a5565b935060408601359250606086013567ffffffffffffffff81111561072d57600080fd5b6107398882890161061f565b969995985093965092949392505050565b634e487b7160e01b600052601160045260246000fd5b80820182811260008312801582168215821617156107805761078061074a565b505092915050565b83815260406020820152816040820152818360608301376000818301606090810191909152601f909201601f1916010192915050565b6000600182016107d0576107d061074a565b506001019056fea264697066735822122010ef8d358c06dd8307170f171e1a3518eef21a36df229188869e966f7e8b22d164736f6c63430008180033",
  "linkReferences": {},
  "deployedLinkReferences": {}
}